{
  "address": "0x31575Dfb4Ad501f5D8e2542Ad82D5D61d37A7232",
  "abi": [
    {
      "inputs": [
        {
          "internalType": "address",
          "name": "vrfCoordinatorV2",
          "type": "address"
        },
        {
          "internalType": "uint64",
          "name": "subscriptionId",
          "type": "uint64"
        },
        {
          "internalType": "bytes32",
          "name": "gasLane",
          "type": "bytes32"
        },
        {
          "internalType": "uint32",
          "name": "callbackGasLimit",
          "type": "uint32"
        },
        {
          "internalType": "string[3]",
          "name": "dogTokenUris",
          "type": "string[3]"
        },
        {
          "internalType": "uint256",
          "name": "mintFee",
          "type": "uint256"
        }
      ],
      "stateMutability": "nonpayable",
      "type": "constructor"
    },
    {
      "inputs": [
        {
          "internalType": "address",
          "name": "have",
          "type": "address"
        },
        {
          "internalType": "address",
          "name": "want",
          "type": "address"
        }
      ],
      "name": "OnlyCoordinatorCanFulfill",
      "type": "error"
    },
    {
      "inputs": [],
      "name": "RandomIpfsNft__NeedMoreETHSent",
      "type": "error"
    },
    {
      "inputs": [],
      "name": "RandomIpfsNft__RangeOutOfBounds",
      "type": "error"
    },
    {
      "inputs": [],
      "name": "RandomIpfsNft__TransferFailed",
      "type": "error"
    },
    {
      "anonymous": false,
      "inputs": [
        {
          "indexed": true,
          "internalType": "address",
          "name": "owner",
          "type": "address"
        },
        {
          "indexed": true,
          "internalType": "address",
          "name": "approved",
          "type": "address"
        },
        {
          "indexed": true,
          "internalType": "uint256",
          "name": "tokenId",
          "type": "uint256"
        }
      ],
      "name": "Approval",
      "type": "event"
    },
    {
      "anonymous": false,
      "inputs": [
        {
          "indexed": true,
          "internalType": "address",
          "name": "owner",
          "type": "address"
        },
        {
          "indexed": true,
          "internalType": "address",
          "name": "operator",
          "type": "address"
        },
        {
          "indexed": false,
          "internalType": "bool",
          "name": "approved",
          "type": "bool"
        }
      ],
      "name": "ApprovalForAll",
      "type": "event"
    },
    {
      "anonymous": false,
      "inputs": [
        {
          "indexed": false,
          "internalType": "enum RandomIpfsNft.Breed",
          "name": "dogBreed",
          "type": "uint8"
        },
        {
          "indexed": false,
          "internalType": "address",
          "name": "minter",
          "type": "address"
        }
      ],
      "name": "NftMinted",
      "type": "event"
    },
    {
      "anonymous": false,
      "inputs": [
        {
          "indexed": true,
          "internalType": "uint256",
          "name": "requestId",
          "type": "uint256"
        },
        {
          "indexed": false,
          "internalType": "address",
          "name": "requester",
          "type": "address"
        }
      ],
      "name": "NftRequested",
      "type": "event"
    },
    {
      "anonymous": false,
      "inputs": [
        {
          "indexed": true,
          "internalType": "address",
          "name": "previousOwner",
          "type": "address"
        },
        {
          "indexed": true,
          "internalType": "address",
          "name": "newOwner",
          "type": "address"
        }
      ],
      "name": "OwnershipTransferred",
      "type": "event"
    },
    {
      "anonymous": false,
      "inputs": [
        {
          "indexed": true,
          "internalType": "address",
          "name": "from",
          "type": "address"
        },
        {
          "indexed": true,
          "internalType": "address",
          "name": "to",
          "type": "address"
        },
        {
          "indexed": true,
          "internalType": "uint256",
          "name": "tokenId",
          "type": "uint256"
        }
      ],
      "name": "Transfer",
      "type": "event"
    },
    {
      "inputs": [
        {
          "internalType": "address",
          "name": "to",
          "type": "address"
        },
        {
          "internalType": "uint256",
          "name": "tokenId",
          "type": "uint256"
        }
      ],
      "name": "approve",
      "outputs": [],
      "stateMutability": "nonpayable",
      "type": "function"
    },
    {
      "inputs": [
        {
          "internalType": "address",
          "name": "owner",
          "type": "address"
        }
      ],
      "name": "balanceOf",
      "outputs": [
        {
          "internalType": "uint256",
          "name": "",
          "type": "uint256"
        }
      ],
      "stateMutability": "view",
      "type": "function"
    },
    {
      "inputs": [
        {
          "internalType": "uint256",
          "name": "tokenId",
          "type": "uint256"
        }
      ],
      "name": "getApproved",
      "outputs": [
        {
          "internalType": "address",
          "name": "",
          "type": "address"
        }
      ],
      "stateMutability": "view",
      "type": "function"
    },
    {
      "inputs": [
        {
          "internalType": "uint256",
          "name": "moddedRng",
          "type": "uint256"
        }
      ],
      "name": "getBreedFromModdedRng",
      "outputs": [
        {
          "internalType": "enum RandomIpfsNft.Breed",
          "name": "",
          "type": "uint8"
        }
      ],
      "stateMutability": "pure",
      "type": "function"
    },
    {
      "inputs": [],
      "name": "getChanceArray",
      "outputs": [
        {
          "internalType": "uint256[3]",
          "name": "",
          "type": "uint256[3]"
        }
      ],
      "stateMutability": "pure",
      "type": "function"
    },
    {
      "inputs": [
        {
          "internalType": "uint256",
          "name": "index",
          "type": "uint256"
        }
      ],
      "name": "getDogTokenUris",
      "outputs": [
        {
          "internalType": "string",
          "name": "",
          "type": "string"
        }
      ],
      "stateMutability": "view",
      "type": "function"
    },
    {
      "inputs": [],
      "name": "getMintFee",
      "outputs": [
        {
          "internalType": "uint256",
          "name": "",
          "type": "uint256"
        }
      ],
      "stateMutability": "view",
      "type": "function"
    },
    {
      "inputs": [
        {
          "internalType": "uint256",
          "name": "index",
          "type": "uint256"
        }
      ],
      "name": "getMinterAddress",
      "outputs": [
        {
          "internalType": "address",
          "name": "",
          "type": "address"
        }
      ],
      "stateMutability": "view",
      "type": "function"
    },
    {
      "inputs": [
        {
          "internalType": "uint256",
          "name": "index",
          "type": "uint256"
        }
      ],
      "name": "getRandomWords",
      "outputs": [
        {
          "internalType": "uint256",
          "name": "",
          "type": "uint256"
        }
      ],
      "stateMutability": "view",
      "type": "function"
    },
    {
      "inputs": [],
      "name": "getTokenCounter",
      "outputs": [
        {
          "internalType": "uint256",
          "name": "",
          "type": "uint256"
        }
      ],
      "stateMutability": "view",
      "type": "function"
    },
    {
      "inputs": [
        {
          "internalType": "address",
          "name": "owner",
          "type": "address"
        },
        {
          "internalType": "address",
          "name": "operator",
          "type": "address"
        }
      ],
      "name": "isApprovedForAll",
      "outputs": [
        {
          "internalType": "bool",
          "name": "",
          "type": "bool"
        }
      ],
      "stateMutability": "view",
      "type": "function"
    },
    {
      "inputs": [],
      "name": "name",
      "outputs": [
        {
          "internalType": "string",
          "name": "",
          "type": "string"
        }
      ],
      "stateMutability": "view",
      "type": "function"
    },
    {
      "inputs": [],
      "name": "owner",
      "outputs": [
        {
          "internalType": "address",
          "name": "",
          "type": "address"
        }
      ],
      "stateMutability": "view",
      "type": "function"
    },
    {
      "inputs": [
        {
          "internalType": "uint256",
          "name": "tokenId",
          "type": "uint256"
        }
      ],
      "name": "ownerOf",
      "outputs": [
        {
          "internalType": "address",
          "name": "",
          "type": "address"
        }
      ],
      "stateMutability": "view",
      "type": "function"
    },
    {
      "inputs": [
        {
          "internalType": "uint256",
          "name": "requestId",
          "type": "uint256"
        },
        {
          "internalType": "uint256[]",
          "name": "randomWords",
          "type": "uint256[]"
        }
      ],
      "name": "rawFulfillRandomWords",
      "outputs": [],
      "stateMutability": "nonpayable",
      "type": "function"
    },
    {
      "inputs": [],
      "name": "renounceOwnership",
      "outputs": [],
      "stateMutability": "nonpayable",
      "type": "function"
    },
    {
      "inputs": [],
      "name": "requestNft",
      "outputs": [
        {
          "internalType": "uint256",
          "name": "requestId",
          "type": "uint256"
        }
      ],
      "stateMutability": "payable",
      "type": "function"
    },
    {
      "inputs": [
        {
          "internalType": "uint256",
          "name": "",
          "type": "uint256"
        }
      ],
      "name": "s_requestIdToSender",
      "outputs": [
        {
          "internalType": "address",
          "name": "",
          "type": "address"
        }
      ],
      "stateMutability": "view",
      "type": "function"
    },
    {
      "inputs": [
        {
          "internalType": "address",
          "name": "from",
          "type": "address"
        },
        {
          "internalType": "address",
          "name": "to",
          "type": "address"
        },
        {
          "internalType": "uint256",
          "name": "tokenId",
          "type": "uint256"
        }
      ],
      "name": "safeTransferFrom",
      "outputs": [],
      "stateMutability": "nonpayable",
      "type": "function"
    },
    {
      "inputs": [
        {
          "internalType": "address",
          "name": "from",
          "type": "address"
        },
        {
          "internalType": "address",
          "name": "to",
          "type": "address"
        },
        {
          "internalType": "uint256",
          "name": "tokenId",
          "type": "uint256"
        },
        {
          "internalType": "bytes",
          "name": "data",
          "type": "bytes"
        }
      ],
      "name": "safeTransferFrom",
      "outputs": [],
      "stateMutability": "nonpayable",
      "type": "function"
    },
    {
      "inputs": [
        {
          "internalType": "address",
          "name": "operator",
          "type": "address"
        },
        {
          "internalType": "bool",
          "name": "approved",
          "type": "bool"
        }
      ],
      "name": "setApprovalForAll",
      "outputs": [],
      "stateMutability": "nonpayable",
      "type": "function"
    },
    {
      "inputs": [
        {
          "internalType": "bytes4",
          "name": "interfaceId",
          "type": "bytes4"
        }
      ],
      "name": "supportsInterface",
      "outputs": [
        {
          "internalType": "bool",
          "name": "",
          "type": "bool"
        }
      ],
      "stateMutability": "view",
      "type": "function"
    },
    {
      "inputs": [],
      "name": "symbol",
      "outputs": [
        {
          "internalType": "string",
          "name": "",
          "type": "string"
        }
      ],
      "stateMutability": "view",
      "type": "function"
    },
    {
      "inputs": [
        {
          "internalType": "uint256",
          "name": "tokenId",
          "type": "uint256"
        }
      ],
      "name": "tokenURI",
      "outputs": [
        {
          "internalType": "string",
          "name": "",
          "type": "string"
        }
      ],
      "stateMutability": "view",
      "type": "function"
    },
    {
      "inputs": [
        {
          "internalType": "address",
          "name": "from",
          "type": "address"
        },
        {
          "internalType": "address",
          "name": "to",
          "type": "address"
        },
        {
          "internalType": "uint256",
          "name": "tokenId",
          "type": "uint256"
        }
      ],
      "name": "transferFrom",
      "outputs": [],
      "stateMutability": "nonpayable",
      "type": "function"
    },
    {
      "inputs": [
        {
          "internalType": "address",
          "name": "newOwner",
          "type": "address"
        }
      ],
      "name": "transferOwnership",
      "outputs": [],
      "stateMutability": "nonpayable",
      "type": "function"
    },
    {
      "inputs": [],
      "name": "withdraw",
      "outputs": [],
      "stateMutability": "nonpayable",
      "type": "function"
    }
  ],
  "transactionHash": "0xae9fbeac9c398c30265f3b85b34a6c564ff58045966fecc4b659b176600e0b8e",
  "args": [
    "0x6168499c0cFfCaCD319c818142124B7A15E857ab",
    "7220",
    "0xd89b2bf150e3b9e13446986e571fb9cab24b13cea0a43ea20a6049a85cc807cc",
    "500000",
    [
      "ipfs://QmPsddgwx2s4HE5V9so61eSR3NfGgJMkHgpTRBw1jnmTrH",
      "ipfs://QmYzrvrN5pSqx19qXUCvJm4uau1rcpytPJGzzBkJQDdv82",
      "ipfs://QmPU6NzQQFJKWJ6MukigvnU4D2GWTvcTtSqQu1U735UNqV"
    ],
    "10000000000000000"
  ],
  "numDeployments": 1,
  "solcInputHash": "ff2fed8808cddf478e6e1dfdcd4acf1c",
  "bytecode": "0x6101406040523480156200001257600080fd5b50604051620044463803806200444683398181016040528101906200003891906200080b565b6040518060400160405280600f81526020017f52616e646f6d2049504653204e465400000000000000000000000000000000008152506040518060400160405280600381526020017f52494e0000000000000000000000000000000000000000000000000000000000815250878073ffffffffffffffffffffffffffffffffffffffff1660808173ffffffffffffffffffffffffffffffffffffffff1660601b81525050508160009080519060200190620000f59291906200029e565b5080600190805190602001906200010e9291906200029e565b5050506200013162000125620001d060201b60201c565b620001d860201b60201c565b8573ffffffffffffffffffffffffffffffffffffffff1660a08173ffffffffffffffffffffffffffffffffffffffff1660601b815250508467ffffffffffffffff1660c08167ffffffffffffffff1660c01b815250508360e081815250508263ffffffff166101008163ffffffff1660e01b8152505081600a906003620001ba9291906200032f565b508061012081815250505050505050506200092b565b600033905090565b6000600760009054906101000a900473ffffffffffffffffffffffffffffffffffffffff16905081600760006101000a81548173ffffffffffffffffffffffffffffffffffffffff021916908373ffffffffffffffffffffffffffffffffffffffff1602179055508173ffffffffffffffffffffffffffffffffffffffff168173ffffffffffffffffffffffffffffffffffffffff167f8be0079c531659141344cd1fd0a4f28419497f9722a3daafe3b4186f6b6457e060405160405180910390a35050565b828054620002ac90620008f5565b90600052602060002090601f016020900481019282620002d057600085556200031c565b82601f10620002eb57805160ff19168380011785556200031c565b828001600101855582156200031c579182015b828111156200031b578251825591602001919060010190620002fe565b5b5090506200032b919062000396565b5090565b82805482825590600052602060002090810192821562000383579160200282015b8281111562000382578251829080519060200190620003719291906200029e565b509160200191906001019062000350565b5b509050620003929190620003b5565b5090565b5b80821115620003b157600081600090555060010162000397565b5090565b5b80821115620003d95760008181620003cf9190620003dd565b50600101620003b6565b5090565b508054620003eb90620008f5565b6000825580601f10620003ff575062000420565b601f0160209004906000526020600020908101906200041f919062000396565b5b50565b6000604051905090565b600080fd5b600080fd5b600073ffffffffffffffffffffffffffffffffffffffff82169050919050565b6000620004648262000437565b9050919050565b620004768162000457565b81146200048257600080fd5b50565b60008151905062000496816200046b565b92915050565b600067ffffffffffffffff82169050919050565b620004bb816200049c565b8114620004c757600080fd5b50565b600081519050620004db81620004b0565b92915050565b6000819050919050565b620004f681620004e1565b81146200050257600080fd5b50565b6000815190506200051681620004eb565b92915050565b600063ffffffff82169050919050565b62000537816200051c565b81146200054357600080fd5b50565b60008151905062000557816200052c565b92915050565b600080fd5b6000601f19601f8301169050919050565b7f4e487b7100000000000000000000000000000000000000000000000000000000600052604160045260246000fd5b620005ad8262000562565b810181811067ffffffffffffffff82111715620005cf57620005ce62000573565b5b80604052505050565b6000620005e462000423565b9050620005f28282620005a2565b919050565b600067ffffffffffffffff82111562000615576200061462000573565b5b602082029050919050565b600080fd5b600080fd5b600067ffffffffffffffff82111562000648576200064762000573565b5b620006538262000562565b9050602081019050919050565b60005b838110156200068057808201518184015260208101905062000663565b8381111562000690576000848401525b50505050565b6000620006ad620006a7846200062a565b620005d8565b905082815260208101848484011115620006cc57620006cb62000625565b5b620006d984828562000660565b509392505050565b600082601f830112620006f957620006f86200055d565b5b81516200070b84826020860162000696565b91505092915050565b60006200072b6200072584620005f7565b620005d8565b9050806020840283018581111562000748576200074762000620565b5b835b818110156200079657805167ffffffffffffffff8111156200077157620007706200055d565b5b808601620007808982620006e1565b855260208501945050506020810190506200074a565b5050509392505050565b600082601f830112620007b857620007b76200055d565b5b6003620007c784828562000714565b91505092915050565b6000819050919050565b620007e581620007d0565b8114620007f157600080fd5b50565b6000815190506200080581620007da565b92915050565b60008060008060008060c087890312156200082b576200082a6200042d565b5b60006200083b89828a0162000485565b96505060206200084e89828a01620004ca565b95505060406200086189828a0162000505565b94505060606200087489828a0162000546565b935050608087015167ffffffffffffffff81111562000898576200089762000432565b5b620008a689828a01620007a0565b92505060a0620008b989828a01620007f4565b9150509295509295509295565b7f4e487b7100000000000000000000000000000000000000000000000000000000600052602260045260246000fd5b600060028204905060018216806200090e57607f821691505b60208210811415620009255762000924620008c6565b5b50919050565b60805160601c60a05160601c60c05160c01c60e0516101005160e01c61012051613ab16200099560003960008181610e3f015261104e01526000611128015260006110e401526000611105015260006110a801526000818161098101526109d50152613ab16000f3fe60806040526004361061019c5760003560e01c806370a08231116100ec578063a36f573b1161008a578063b88d4fde11610064578063b88d4fde146105e1578063c87b56dd1461060a578063e985e9c514610647578063f2fde38b146106845761019c565b8063a36f573b14610549578063a51cccf314610586578063aa152491146105c35761019c565b80637a5caab3116100c65780637a5caab31461049f5780638da5cb5b146104ca57806395d89b41146104f5578063a22cb465146105205761019c565b806370a082311461040e578063715018a61461044b5780637869f32c146104625761019c565b80633af25975116101595780634b3c08f3116101335780634b3c08f31461033e5780635dacf5f41461037b5780636352211e146103a65780636e02007d146103e35761019c565b80633af25975146102c15780633ccfd60b146102fe57806342842e0e146103155761019c565b806301ffc9a7146101a157806306fdde03146101de578063081812fc14610209578063095ea7b3146102465780631fe543e31461026f57806323b872dd14610298575b600080fd5b3480156101ad57600080fd5b506101c860048036038101906101c3919061265f565b6106ad565b6040516101d591906126a7565b60405180910390f35b3480156101ea57600080fd5b506101f361078f565b604051610200919061275b565b60405180910390f35b34801561021557600080fd5b50610230600480360381019061022b91906127b3565b610821565b60405161023d9190612821565b60405180910390f35b34801561025257600080fd5b5061026d60048036038101906102689190612868565b610867565b005b34801561027b57600080fd5b50610296600480360381019061029191906129f0565b61097f565b005b3480156102a457600080fd5b506102bf60048036038101906102ba9190612a4c565b610a3f565b005b3480156102cd57600080fd5b506102e860048036038101906102e391906127b3565b610a9f565b6040516102f5919061275b565b60405180910390f35b34801561030a57600080fd5b50610313610b4f565b005b34801561032157600080fd5b5061033c60048036038101906103379190612a4c565b610c03565b005b34801561034a57600080fd5b50610365600480360381019061036091906127b3565b610c23565b6040516103729190612aae565b60405180910390f35b34801561038757600080fd5b50610390610c4b565b60405161039d9190612b74565b60405180910390f35b3480156103b257600080fd5b506103cd60048036038101906103c891906127b3565b610c76565b6040516103da9190612821565b60405180910390f35b3480156103ef57600080fd5b506103f8610d28565b6040516104059190612aae565b60405180910390f35b34801561041a57600080fd5b5061043560048036038101906104309190612b8f565b610d32565b6040516104429190612aae565b60405180910390f35b34801561045757600080fd5b50610460610dea565b005b34801561046e57600080fd5b50610489600480360381019061048491906127b3565b610dfe565b6040516104969190612821565b60405180910390f35b3480156104ab57600080fd5b506104b4610e3b565b6040516104c19190612aae565b60405180910390f35b3480156104d657600080fd5b506104df610e63565b6040516104ec9190612821565b60405180910390f35b34801561050157600080fd5b5061050a610e8d565b604051610517919061275b565b60405180910390f35b34801561052c57600080fd5b5061054760048036038101906105429190612be8565b610f1f565b005b34801561055557600080fd5b50610570600480360381019061056b91906127b3565b610f35565b60405161057d9190612821565b60405180910390f35b34801561059257600080fd5b506105ad60048036038101906105a891906127b3565b610f68565b6040516105ba9190612c9f565b60405180910390f35b6105cb61104a565b6040516105d89190612aae565b60405180910390f35b3480156105ed57600080fd5b5061060860048036038101906106039190612d6f565b61124a565b005b34801561061657600080fd5b50610631600480360381019061062c91906127b3565b6112ac565b60405161063e919061275b565b60405180910390f35b34801561065357600080fd5b5061066e60048036038101906106699190612df2565b6113bf565b60405161067b91906126a7565b60405180910390f35b34801561069057600080fd5b506106ab60048036038101906106a69190612b8f565b611453565b005b60007f80ac58cd000000000000000000000000000000000000000000000000000000007bffffffffffffffffffffffffffffffffffffffffffffffffffffffff1916827bffffffffffffffffffffffffffffffffffffffffffffffffffffffff1916148061077857507f5b5e139f000000000000000000000000000000000000000000000000000000007bffffffffffffffffffffffffffffffffffffffffffffffffffffffff1916827bffffffffffffffffffffffffffffffffffffffffffffffffffffffff1916145b806107885750610787826114d7565b5b9050919050565b60606000805461079e90612e61565b80601f01602080910402602001604051908101604052809291908181526020018280546107ca90612e61565b80156108175780601f106107ec57610100808354040283529160200191610817565b820191906000526020600020905b8154815290600101906020018083116107fa57829003601f168201915b5050505050905090565b600061082c82611541565b6004600083815260200190815260200160002060009054906101000a900473ffffffffffffffffffffffffffffffffffffffff169050919050565b600061087282610c76565b90508073ffffffffffffffffffffffffffffffffffffffff168373ffffffffffffffffffffffffffffffffffffffff1614156108e3576040517f08c379a00000000000000000000000000000000000000000000000000000000081526004016108da90612f05565b60405180910390fd5b8073ffffffffffffffffffffffffffffffffffffffff1661090261158c565b73ffffffffffffffffffffffffffffffffffffffff16148061093157506109308161092b61158c565b6113bf565b5b610970576040517f08c379a000000000000000000000000000000000000000000000000000000000815260040161096790612f97565b60405180910390fd5b61097a8383611594565b505050565b7f000000000000000000000000000000000000000000000000000000000000000073ffffffffffffffffffffffffffffffffffffffff163373ffffffffffffffffffffffffffffffffffffffff1614610a3157337f00000000000000000000000000000000000000000000000000000000000000006040517f1cf993f4000000000000000000000000000000000000000000000000000000008152600401610a28929190612fb7565b60405180910390fd5b610a3b828261164d565b5050565b610a50610a4a61158c565b82611801565b610a8f576040517f08c379a0000000000000000000000000000000000000000000000000000000008152600401610a8690613052565b60405180910390fd5b610a9a838383611896565b505050565b6060600a8281548110610ab557610ab4613072565b5b906000526020600020018054610aca90612e61565b80601f0160208091040260200160405190810160405280929190818152602001828054610af690612e61565b8015610b435780601f10610b1857610100808354040283529160200191610b43565b820191906000526020600020905b815481529060010190602001808311610b2657829003601f168201915b50505050509050919050565b610b57611afd565b600047905060003373ffffffffffffffffffffffffffffffffffffffff1682604051610b82906130d2565b60006040518083038185875af1925050503d8060008114610bbf576040519150601f19603f3d011682016040523d82523d6000602084013e610bc4565b606091505b5050905080610bff576040517fca7e25b700000000000000000000000000000000000000000000000000000000815260040160405180910390fd5b5050565b610c1e8383836040518060200160405280600081525061124a565b505050565b6000600b8281548110610c3957610c38613072565b5b90600052602060002001549050919050565b610c536124e1565b6040518060600160405280600a8152602001601e81526020016064815250905090565b6000806002600084815260200190815260200160002060009054906101000a900473ffffffffffffffffffffffffffffffffffffffff169050600073ffffffffffffffffffffffffffffffffffffffff168173ffffffffffffffffffffffffffffffffffffffff161415610d1f576040517f08c379a0000000000000000000000000000000000000000000000000000000008152600401610d1690613133565b60405180910390fd5b80915050919050565b6000600954905090565b60008073ffffffffffffffffffffffffffffffffffffffff168273ffffffffffffffffffffffffffffffffffffffff161415610da3576040517f08c379a0000000000000000000000000000000000000000000000000000000008152600401610d9a906131c5565b60405180910390fd5b600360008373ffffffffffffffffffffffffffffffffffffffff1673ffffffffffffffffffffffffffffffffffffffff168152602001908152602001600020549050919050565b610df2611afd565b610dfc6000611b7b565b565b60006008600083815260200190815260200160002060009054906101000a900473ffffffffffffffffffffffffffffffffffffffff169050919050565b60007f0000000000000000000000000000000000000000000000000000000000000000905090565b6000600760009054906101000a900473ffffffffffffffffffffffffffffffffffffffff16905090565b606060018054610e9c90612e61565b80601f0160208091040260200160405190810160405280929190818152602001828054610ec890612e61565b8015610f155780601f10610eea57610100808354040283529160200191610f15565b820191906000526020600020905b815481529060010190602001808311610ef857829003601f168201915b5050505050905090565b610f31610f2a61158c565b8383611c41565b5050565b60086020528060005260406000206000915054906101000a900473ffffffffffffffffffffffffffffffffffffffff1681565b600080600090506000610f79610c4b565b905060005b600381101561101257828510158015610fb85750818160038110610fa557610fa4613072565b5b602002015183610fb59190613214565b85105b15610fda57806002811115610fd057610fcf612c28565b5b9350505050611045565b818160038110610fed57610fec613072565b5b602002015183610ffd9190613214565b9250808061100a9061326a565b915050610f7e565b506040517f12806c9d00000000000000000000000000000000000000000000000000000000815260040160405180910390fd5b919050565b60007f00000000000000000000000000000000000000000000000000000000000000003410156110a6576040517fb90f491000000000000000000000000000000000000000000000000000000000815260040160405180910390fd5b7f000000000000000000000000000000000000000000000000000000000000000073ffffffffffffffffffffffffffffffffffffffff16635d3b1d307f00000000000000000000000000000000000000000000000000000000000000007f000000000000000000000000000000000000000000000000000000000000000060037f000000000000000000000000000000000000000000000000000000000000000060016040518663ffffffff1660e01b815260040161116995949392919061332b565b602060405180830381600087803b15801561118357600080fd5b505af1158015611197573d6000803e3d6000fd5b505050506040513d601f19601f820116820180604052508101906111bb9190613393565b9050336008600083815260200190815260200160002060006101000a81548173ffffffffffffffffffffffffffffffffffffffff021916908373ffffffffffffffffffffffffffffffffffffffff160217905550807ff873236e6cc0ecc5be1a9a35c95ee5b8d1ac4cc7bfef0cc5060391d6cc98e26b3360405161123f9190612821565b60405180910390a290565b61125b61125561158c565b83611801565b61129a576040517f08c379a000000000000000000000000000000000000000000000000000000000815260040161129190613052565b60405180910390fd5b6112a684848484611dae565b50505050565b60606112b782611541565b60006006600084815260200190815260200160002080546112d790612e61565b80601f016020809104026020016040519081016040528092919081815260200182805461130390612e61565b80156113505780601f1061132557610100808354040283529160200191611350565b820191906000526020600020905b81548152906001019060200180831161133357829003601f168201915b505050505090506000611361611e0a565b90506000815114156113775781925050506113ba565b6000825111156113ac5780826040516020016113949291906133fc565b604051602081830303815290604052925050506113ba565b6113b584611e21565b925050505b919050565b6000600560008473ffffffffffffffffffffffffffffffffffffffff1673ffffffffffffffffffffffffffffffffffffffff16815260200190815260200160002060008373ffffffffffffffffffffffffffffffffffffffff1673ffffffffffffffffffffffffffffffffffffffff16815260200190815260200160002060009054906101000a900460ff16905092915050565b61145b611afd565b600073ffffffffffffffffffffffffffffffffffffffff168173ffffffffffffffffffffffffffffffffffffffff1614156114cb576040517f08c379a00000000000000000000000000000000000000000000000000000000081526004016114c290613492565b60405180910390fd5b6114d481611b7b565b50565b60007f01ffc9a7000000000000000000000000000000000000000000000000000000007bffffffffffffffffffffffffffffffffffffffffffffffffffffffff1916827bffffffffffffffffffffffffffffffffffffffffffffffffffffffff1916149050919050565b61154a81611e89565b611589576040517f08c379a000000000000000000000000000000000000000000000000000000000815260040161158090613133565b60405180910390fd5b50565b600033905090565b816004600083815260200190815260200160002060006101000a81548173ffffffffffffffffffffffffffffffffffffffff021916908373ffffffffffffffffffffffffffffffffffffffff160217905550808273ffffffffffffffffffffffffffffffffffffffff1661160783610c76565b73ffffffffffffffffffffffffffffffffffffffff167f8c5be1e5ebec7d5bd14f71427d1e84f3dd0314c0f7b2291e5b200ac8c7c3b92560405160405180910390a45050565b80600b9080519060200190611663929190612503565b5060006008600084815260200190815260200160002060009054906101000a900473ffffffffffffffffffffffffffffffffffffffff16905060006009549050600960008154809291906116b69061326a565b919050555060006064846000815181106116d3576116d2613072565b5b60200260200101516116e591906134e1565b905060006116f282610f68565b90506116fe8484611ef5565b6117c083600a83600281111561171757611716612c28565b5b8154811061172857611727613072565b5b90600052602060002001805461173d90612e61565b80601f016020809104026020016040519081016040528092919081815260200182805461176990612e61565b80156117b65780601f1061178b576101008083540402835291602001916117b6565b820191906000526020600020905b81548152906001019060200180831161179957829003601f168201915b5050505050611f13565b7f8a269f26b688e110e9cbd887d163dab35cae678fa353a0292de532c0cac1ecdc81856040516117f1929190613512565b60405180910390a1505050505050565b60008061180d83610c76565b90508073ffffffffffffffffffffffffffffffffffffffff168473ffffffffffffffffffffffffffffffffffffffff16148061184f575061184e81856113bf565b5b8061188d57508373ffffffffffffffffffffffffffffffffffffffff1661187584610821565b73ffffffffffffffffffffffffffffffffffffffff16145b91505092915050565b8273ffffffffffffffffffffffffffffffffffffffff166118b682610c76565b73ffffffffffffffffffffffffffffffffffffffff161461190c576040517f08c379a0000000000000000000000000000000000000000000000000000000008152600401611903906135ad565b60405180910390fd5b600073ffffffffffffffffffffffffffffffffffffffff168273ffffffffffffffffffffffffffffffffffffffff16141561197c576040517f08c379a00000000000000000000000000000000000000000000000000000000081526004016119739061363f565b60405180910390fd5b611987838383611f87565b611992600082611594565b6001600360008573ffffffffffffffffffffffffffffffffffffffff1673ffffffffffffffffffffffffffffffffffffffff16815260200190815260200160002060008282546119e2919061365f565b925050819055506001600360008473ffffffffffffffffffffffffffffffffffffffff1673ffffffffffffffffffffffffffffffffffffffff1681526020019081526020016000206000828254611a399190613214565b92505081905550816002600083815260200190815260200160002060006101000a81548173ffffffffffffffffffffffffffffffffffffffff021916908373ffffffffffffffffffffffffffffffffffffffff160217905550808273ffffffffffffffffffffffffffffffffffffffff168473ffffffffffffffffffffffffffffffffffffffff167fddf252ad1be2c89b69c2b068fc378daa952ba7f163c4a11628f55a4df523b3ef60405160405180910390a4611af8838383611f8c565b505050565b611b0561158c565b73ffffffffffffffffffffffffffffffffffffffff16611b23610e63565b73ffffffffffffffffffffffffffffffffffffffff1614611b79576040517f08c379a0000000000000000000000000000000000000000000000000000000008152600401611b70906136df565b60405180910390fd5b565b6000600760009054906101000a900473ffffffffffffffffffffffffffffffffffffffff16905081600760006101000a81548173ffffffffffffffffffffffffffffffffffffffff021916908373ffffffffffffffffffffffffffffffffffffffff1602179055508173ffffffffffffffffffffffffffffffffffffffff168173ffffffffffffffffffffffffffffffffffffffff167f8be0079c531659141344cd1fd0a4f28419497f9722a3daafe3b4186f6b6457e060405160405180910390a35050565b8173ffffffffffffffffffffffffffffffffffffffff168373ffffffffffffffffffffffffffffffffffffffff161415611cb0576040517f08c379a0000000000000000000000000000000000000000000000000000000008152600401611ca79061374b565b60405180910390fd5b80600560008573ffffffffffffffffffffffffffffffffffffffff1673ffffffffffffffffffffffffffffffffffffffff16815260200190815260200160002060008473ffffffffffffffffffffffffffffffffffffffff1673ffffffffffffffffffffffffffffffffffffffff16815260200190815260200160002060006101000a81548160ff0219169083151502179055508173ffffffffffffffffffffffffffffffffffffffff168373ffffffffffffffffffffffffffffffffffffffff167f17307eab39ab6107e8899845ad3d59bd9653f200f220920489ca2b5937696c3183604051611da191906126a7565b60405180910390a3505050565b611db9848484611896565b611dc584848484611f91565b611e04576040517f08c379a0000000000000000000000000000000000000000000000000000000008152600401611dfb906137dd565b60405180910390fd5b50505050565b606060405180602001604052806000815250905090565b6060611e2c82611541565b6000611e36611e0a565b90506000815111611e565760405180602001604052806000815250611e81565b80611e6084612128565b604051602001611e719291906133fc565b6040516020818303038152906040525b915050919050565b60008073ffffffffffffffffffffffffffffffffffffffff166002600084815260200190815260200160002060009054906101000a900473ffffffffffffffffffffffffffffffffffffffff1673ffffffffffffffffffffffffffffffffffffffff1614159050919050565b611f0f828260405180602001604052806000815250612289565b5050565b611f1c82611e89565b611f5b576040517f08c379a0000000000000000000000000000000000000000000000000000000008152600401611f529061386f565b60405180910390fd5b80600660008481526020019081526020016000209080519060200190611f82929190612550565b505050565b505050565b505050565b6000611fb28473ffffffffffffffffffffffffffffffffffffffff166122e4565b1561211b578373ffffffffffffffffffffffffffffffffffffffff1663150b7a02611fdb61158c565b8786866040518563ffffffff1660e01b8152600401611ffd94939291906138e4565b602060405180830381600087803b15801561201757600080fd5b505af192505050801561204857506040513d601f19601f820116820180604052508101906120459190613945565b60015b6120cb573d8060008114612078576040519150601f19603f3d011682016040523d82523d6000602084013e61207d565b606091505b506000815114156120c3576040517f08c379a00000000000000000000000000000000000000000000000000000000081526004016120ba906137dd565b60405180910390fd5b805181602001fd5b63150b7a0260e01b7bffffffffffffffffffffffffffffffffffffffffffffffffffffffff1916817bffffffffffffffffffffffffffffffffffffffffffffffffffffffff191614915050612120565b600190505b949350505050565b60606000821415612170576040518060400160405280600181526020017f30000000000000000000000000000000000000000000000000000000000000008152509050612284565b600082905060005b600082146121a257808061218b9061326a565b915050600a8261219b9190613972565b9150612178565b60008167ffffffffffffffff8111156121be576121bd6128ad565b5b6040519080825280601f01601f1916602001820160405280156121f05781602001600182028036833780820191505090505b5090505b6000851461227d57600182612209919061365f565b9150600a8561221891906134e1565b60306122249190613214565b60f81b81838151811061223a57612239613072565b5b60200101907effffffffffffffffffffffffffffffffffffffffffffffffffffffffffffff1916908160001a905350600a856122769190613972565b94506121f4565b8093505050505b919050565b6122938383612307565b6122a06000848484611f91565b6122df576040517f08c379a00000000000000000000000000000000000000000000000000000000081526004016122d6906137dd565b60405180910390fd5b505050565b6000808273ffffffffffffffffffffffffffffffffffffffff163b119050919050565b600073ffffffffffffffffffffffffffffffffffffffff168273ffffffffffffffffffffffffffffffffffffffff161415612377576040517f08c379a000000000000000000000000000000000000000000000000000000000815260040161236e906139ef565b60405180910390fd5b61238081611e89565b156123c0576040517f08c379a00000000000000000000000000000000000000000000000000000000081526004016123b790613a5b565b60405180910390fd5b6123cc60008383611f87565b6001600360008473ffffffffffffffffffffffffffffffffffffffff1673ffffffffffffffffffffffffffffffffffffffff168152602001908152602001600020600082825461241c9190613214565b92505081905550816002600083815260200190815260200160002060006101000a81548173ffffffffffffffffffffffffffffffffffffffff021916908373ffffffffffffffffffffffffffffffffffffffff160217905550808273ffffffffffffffffffffffffffffffffffffffff16600073ffffffffffffffffffffffffffffffffffffffff167fddf252ad1be2c89b69c2b068fc378daa952ba7f163c4a11628f55a4df523b3ef60405160405180910390a46124dd60008383611f8c565b5050565b6040518060600160405280600390602082028036833780820191505090505090565b82805482825590600052602060002090810192821561253f579160200282015b8281111561253e578251825591602001919060010190612523565b5b50905061254c91906125d6565b5090565b82805461255c90612e61565b90600052602060002090601f01602090048101928261257e57600085556125c5565b82601f1061259757805160ff19168380011785556125c5565b828001600101855582156125c5579182015b828111156125c45782518255916020019190600101906125a9565b5b5090506125d291906125d6565b5090565b5b808211156125ef5760008160009055506001016125d7565b5090565b6000604051905090565b600080fd5b600080fd5b60007fffffffff0000000000000000000000000000000000000000000000000000000082169050919050565b61263c81612607565b811461264757600080fd5b50565b60008135905061265981612633565b92915050565b600060208284031215612675576126746125fd565b5b60006126838482850161264a565b91505092915050565b60008115159050919050565b6126a18161268c565b82525050565b60006020820190506126bc6000830184612698565b92915050565b600081519050919050565b600082825260208201905092915050565b60005b838110156126fc5780820151818401526020810190506126e1565b8381111561270b576000848401525b50505050565b6000601f19601f8301169050919050565b600061272d826126c2565b61273781856126cd565b93506127478185602086016126de565b61275081612711565b840191505092915050565b600060208201905081810360008301526127758184612722565b905092915050565b6000819050919050565b6127908161277d565b811461279b57600080fd5b50565b6000813590506127ad81612787565b92915050565b6000602082840312156127c9576127c86125fd565b5b60006127d78482850161279e565b91505092915050565b600073ffffffffffffffffffffffffffffffffffffffff82169050919050565b600061280b826127e0565b9050919050565b61281b81612800565b82525050565b60006020820190506128366000830184612812565b92915050565b61284581612800565b811461285057600080fd5b50565b6000813590506128628161283c565b92915050565b6000806040838503121561287f5761287e6125fd565b5b600061288d85828601612853565b925050602061289e8582860161279e565b9150509250929050565b600080fd5b7f4e487b7100000000000000000000000000000000000000000000000000000000600052604160045260246000fd5b6128e582612711565b810181811067ffffffffffffffff82111715612904576129036128ad565b5b80604052505050565b60006129176125f3565b905061292382826128dc565b919050565b600067ffffffffffffffff821115612943576129426128ad565b5b602082029050602081019050919050565b600080fd5b600061296c61296784612928565b61290d565b9050808382526020820190506020840283018581111561298f5761298e612954565b5b835b818110156129b857806129a4888261279e565b845260208401935050602081019050612991565b5050509392505050565b600082601f8301126129d7576129d66128a8565b5b81356129e7848260208601612959565b91505092915050565b60008060408385031215612a0757612a066125fd565b5b6000612a158582860161279e565b925050602083013567ffffffffffffffff811115612a3657612a35612602565b5b612a42858286016129c2565b9150509250929050565b600080600060608486031215612a6557612a646125fd565b5b6000612a7386828701612853565b9350506020612a8486828701612853565b9250506040612a958682870161279e565b9150509250925092565b612aa88161277d565b82525050565b6000602082019050612ac36000830184612a9f565b92915050565b600060039050919050565b600081905092915050565b6000819050919050565b612af28161277d565b82525050565b6000612b048383612ae9565b60208301905092915050565b6000602082019050919050565b612b2681612ac9565b612b308184612ad4565b9250612b3b82612adf565b8060005b83811015612b6c578151612b538782612af8565b9650612b5e83612b10565b925050600181019050612b3f565b505050505050565b6000606082019050612b896000830184612b1d565b92915050565b600060208284031215612ba557612ba46125fd565b5b6000612bb384828501612853565b91505092915050565b612bc58161268c565b8114612bd057600080fd5b50565b600081359050612be281612bbc565b92915050565b60008060408385031215612bff57612bfe6125fd565b5b6000612c0d85828601612853565b9250506020612c1e85828601612bd3565b9150509250929050565b7f4e487b7100000000000000000000000000000000000000000000000000000000600052602160045260246000fd5b60038110612c6857612c67612c28565b5b50565b6000819050612c7982612c57565b919050565b6000612c8982612c6b565b9050919050565b612c9981612c7e565b82525050565b6000602082019050612cb46000830184612c90565b92915050565b600080fd5b600067ffffffffffffffff821115612cda57612cd96128ad565b5b612ce382612711565b9050602081019050919050565b82818337600083830152505050565b6000612d12612d0d84612cbf565b61290d565b905082815260208101848484011115612d2e57612d2d612cba565b5b612d39848285612cf0565b509392505050565b600082601f830112612d5657612d556128a8565b5b8135612d66848260208601612cff565b91505092915050565b60008060008060808587031215612d8957612d886125fd565b5b6000612d9787828801612853565b9450506020612da887828801612853565b9350506040612db98782880161279e565b925050606085013567ffffffffffffffff811115612dda57612dd9612602565b5b612de687828801612d41565b91505092959194509250565b60008060408385031215612e0957612e086125fd565b5b6000612e1785828601612853565b9250506020612e2885828601612853565b9150509250929050565b7f4e487b7100000000000000000000000000000000000000000000000000000000600052602260045260246000fd5b60006002820490506001821680612e7957607f821691505b60208210811415612e8d57612e8c612e32565b5b50919050565b7f4552433732313a20617070726f76616c20746f2063757272656e74206f776e6560008201527f7200000000000000000000000000000000000000000000000000000000000000602082015250565b6000612eef6021836126cd565b9150612efa82612e93565b604082019050919050565b60006020820190508181036000830152612f1e81612ee2565b9050919050565b7f4552433732313a20617070726f76652063616c6c6572206973206e6f7420746f60008201527f6b656e206f776e6572206e6f7220617070726f76656420666f7220616c6c0000602082015250565b6000612f81603e836126cd565b9150612f8c82612f25565b604082019050919050565b60006020820190508181036000830152612fb081612f74565b9050919050565b6000604082019050612fcc6000830185612812565b612fd96020830184612812565b9392505050565b7f4552433732313a2063616c6c6572206973206e6f7420746f6b656e206f776e6560008201527f72206e6f7220617070726f766564000000000000000000000000000000000000602082015250565b600061303c602e836126cd565b915061304782612fe0565b604082019050919050565b6000602082019050818103600083015261306b8161302f565b9050919050565b7f4e487b7100000000000000000000000000000000000000000000000000000000600052603260045260246000fd5b600081905092915050565b50565b60006130bc6000836130a1565b91506130c7826130ac565b600082019050919050565b60006130dd826130af565b9150819050919050565b7f4552433732313a20696e76616c696420746f6b656e2049440000000000000000600082015250565b600061311d6018836126cd565b9150613128826130e7565b602082019050919050565b6000602082019050818103600083015261314c81613110565b9050919050565b7f4552433732313a2061646472657373207a65726f206973206e6f74206120766160008201527f6c6964206f776e65720000000000000000000000000000000000000000000000602082015250565b60006131af6029836126cd565b91506131ba82613153565b604082019050919050565b600060208201905081810360008301526131de816131a2565b9050919050565b7f4e487b7100000000000000000000000000000000000000000000000000000000600052601160045260246000fd5b600061321f8261277d565b915061322a8361277d565b9250827fffffffffffffffffffffffffffffffffffffffffffffffffffffffffffffffff0382111561325f5761325e6131e5565b5b828201905092915050565b60006132758261277d565b91507fffffffffffffffffffffffffffffffffffffffffffffffffffffffffffffffff8214156132a8576132a76131e5565b5b600182019050919050565b6000819050919050565b6132c6816132b3565b82525050565b600067ffffffffffffffff82169050919050565b6132e9816132cc565b82525050565b600061ffff82169050919050565b613306816132ef565b82525050565b600063ffffffff82169050919050565b6133258161330c565b82525050565b600060a08201905061334060008301886132bd565b61334d60208301876132e0565b61335a60408301866132fd565b613367606083018561331c565b613374608083018461331c565b9695505050505050565b60008151905061338d81612787565b92915050565b6000602082840312156133a9576133a86125fd565b5b60006133b78482850161337e565b91505092915050565b600081905092915050565b60006133d6826126c2565b6133e081856133c0565b93506133f08185602086016126de565b80840191505092915050565b600061340882856133cb565b915061341482846133cb565b91508190509392505050565b7f4f776e61626c653a206e6577206f776e657220697320746865207a65726f206160008201527f6464726573730000000000000000000000000000000000000000000000000000602082015250565b600061347c6026836126cd565b915061348782613420565b604082019050919050565b600060208201905081810360008301526134ab8161346f565b9050919050565b7f4e487b7100000000000000000000000000000000000000000000000000000000600052601260045260246000fd5b60006134ec8261277d565b91506134f78361277d565b925082613507576135066134b2565b5b828206905092915050565b60006040820190506135276000830185612c90565b6135346020830184612812565b9392505050565b7f4552433732313a207472616e736665722066726f6d20696e636f72726563742060008201527f6f776e6572000000000000000000000000000000000000000000000000000000602082015250565b60006135976025836126cd565b91506135a28261353b565b604082019050919050565b600060208201905081810360008301526135c68161358a565b9050919050565b7f4552433732313a207472616e7366657220746f20746865207a65726f2061646460008201527f7265737300000000000000000000000000000000000000000000000000000000602082015250565b60006136296024836126cd565b9150613634826135cd565b604082019050919050565b600060208201905081810360008301526136588161361c565b9050919050565b600061366a8261277d565b91506136758361277d565b925082821015613688576136876131e5565b5b828203905092915050565b7f4f776e61626c653a2063616c6c6572206973206e6f7420746865206f776e6572600082015250565b60006136c96020836126cd565b91506136d482613693565b602082019050919050565b600060208201905081810360008301526136f8816136bc565b9050919050565b7f4552433732313a20617070726f766520746f2063616c6c657200000000000000600082015250565b60006137356019836126cd565b9150613740826136ff565b602082019050919050565b6000602082019050818103600083015261376481613728565b9050919050565b7f4552433732313a207472616e7366657220746f206e6f6e20455243373231526560008201527f63656976657220696d706c656d656e7465720000000000000000000000000000602082015250565b60006137c76032836126cd565b91506137d28261376b565b604082019050919050565b600060208201905081810360008301526137f6816137ba565b9050919050565b7f45524337323155524953746f726167653a2055524920736574206f66206e6f6e60008201527f6578697374656e7420746f6b656e000000000000000000000000000000000000602082015250565b6000613859602e836126cd565b9150613864826137fd565b604082019050919050565b600060208201905081810360008301526138888161384c565b9050919050565b600081519050919050565b600082825260208201905092915050565b60006138b68261388f565b6138c0818561389a565b93506138d08185602086016126de565b6138d981612711565b840191505092915050565b60006080820190506138f96000830187612812565b6139066020830186612812565b6139136040830185612a9f565b818103606083015261392581846138ab565b905095945050505050565b60008151905061393f81612633565b92915050565b60006020828403121561395b5761395a6125fd565b5b600061396984828501613930565b91505092915050565b600061397d8261277d565b91506139888361277d565b925082613998576139976134b2565b5b828204905092915050565b7f4552433732313a206d696e7420746f20746865207a65726f2061646472657373600082015250565b60006139d96020836126cd565b91506139e4826139a3565b602082019050919050565b60006020820190508181036000830152613a08816139cc565b9050919050565b7f4552433732313a20746f6b656e20616c7265616479206d696e74656400000000600082015250565b6000613a45601c836126cd565b9150613a5082613a0f565b602082019050919050565b60006020820190508181036000830152613a7481613a38565b905091905056fea26469706673582212203ab89c0d8d7bb45aaffe736c7db4848a2438c1479e0644905b74f844a98e88e564736f6c63430008080033",
  "devdoc": {
    "kind": "dev",
    "methods": {
      "approve(address,uint256)": {
        "details": "See {IERC721-approve}."
      },
      "balanceOf(address)": {
        "details": "See {IERC721-balanceOf}."
      },
      "getApproved(uint256)": {
        "details": "See {IERC721-getApproved}."
      },
      "isApprovedForAll(address,address)": {
        "details": "See {IERC721-isApprovedForAll}."
      },
      "name()": {
        "details": "See {IERC721Metadata-name}."
      },
      "owner()": {
        "details": "Returns the address of the current owner."
      },
      "ownerOf(uint256)": {
        "details": "See {IERC721-ownerOf}."
      },
      "renounceOwnership()": {
        "details": "Leaves the contract without owner. It will not be possible to call `onlyOwner` functions anymore. Can only be called by the current owner. NOTE: Renouncing ownership will leave the contract without an owner, thereby removing any functionality that is only available to the owner."
      },
      "safeTransferFrom(address,address,uint256)": {
        "details": "See {IERC721-safeTransferFrom}."
      },
      "safeTransferFrom(address,address,uint256,bytes)": {
        "details": "See {IERC721-safeTransferFrom}."
      },
      "setApprovalForAll(address,bool)": {
        "details": "See {IERC721-setApprovalForAll}."
      },
      "supportsInterface(bytes4)": {
        "details": "See {IERC165-supportsInterface}."
      },
      "symbol()": {
        "details": "See {IERC721Metadata-symbol}."
      },
      "tokenURI(uint256)": {
        "details": "See {IERC721Metadata-tokenURI}."
      },
      "transferFrom(address,address,uint256)": {
        "details": "See {IERC721-transferFrom}."
      },
      "transferOwnership(address)": {
        "details": "Transfers ownership of the contract to a new account (`newOwner`). Can only be called by the current owner."
      }
    },
    "version": 1
  },
  "userdoc": {
    "kind": "user",
    "methods": {},
    "version": 1
  },
  "storageLayout": {
    "storage": [
      {
        "astId": 331,
        "contract": "contracts/RandomIpfsNft.sol:RandomIpfsNft",
        "label": "_name",
        "offset": 0,
        "slot": "0",
        "type": "t_string_storage"
      },
      {
        "astId": 333,
        "contract": "contracts/RandomIpfsNft.sol:RandomIpfsNft",
        "label": "_symbol",
        "offset": 0,
        "slot": "1",
        "type": "t_string_storage"
      },
      {
        "astId": 337,
        "contract": "contracts/RandomIpfsNft.sol:RandomIpfsNft",
        "label": "_owners",
        "offset": 0,
        "slot": "2",
        "type": "t_mapping(t_uint256,t_address)"
      },
      {
        "astId": 341,
        "contract": "contracts/RandomIpfsNft.sol:RandomIpfsNft",
        "label": "_balances",
        "offset": 0,
        "slot": "3",
        "type": "t_mapping(t_address,t_uint256)"
      },
      {
        "astId": 345,
        "contract": "contracts/RandomIpfsNft.sol:RandomIpfsNft",
        "label": "_tokenApprovals",
        "offset": 0,
        "slot": "4",
        "type": "t_mapping(t_uint256,t_address)"
      },
      {
        "astId": 351,
        "contract": "contracts/RandomIpfsNft.sol:RandomIpfsNft",
        "label": "_operatorApprovals",
        "offset": 0,
        "slot": "5",
        "type": "t_mapping(t_address,t_mapping(t_address,t_bool))"
      },
      {
        "astId": 1319,
        "contract": "contracts/RandomIpfsNft.sol:RandomIpfsNft",
        "label": "_tokenURIs",
        "offset": 0,
        "slot": "6",
        "type": "t_mapping(t_uint256,t_string_storage)"
      },
      {
        "astId": 200,
        "contract": "contracts/RandomIpfsNft.sol:RandomIpfsNft",
        "label": "_owner",
        "offset": 0,
        "slot": "7",
        "type": "t_address"
      },
      {
        "astId": 2387,
        "contract": "contracts/RandomIpfsNft.sol:RandomIpfsNft",
        "label": "s_requestIdToSender",
        "offset": 0,
        "slot": "8",
        "type": "t_mapping(t_uint256,t_address)"
      },
      {
        "astId": 2389,
        "contract": "contracts/RandomIpfsNft.sol:RandomIpfsNft",
        "label": "s_tokenCounter",
        "offset": 0,
        "slot": "9",
        "type": "t_uint256"
      },
      {
        "astId": 2395,
        "contract": "contracts/RandomIpfsNft.sol:RandomIpfsNft",
        "label": "s_dogTokenUris",
        "offset": 0,
        "slot": "10",
        "type": "t_array(t_string_storage)dyn_storage"
      },
      {
        "astId": 2400,
        "contract": "contracts/RandomIpfsNft.sol:RandomIpfsNft",
        "label": "s_randomWords",
        "offset": 0,
        "slot": "11",
        "type": "t_array(t_uint256)dyn_storage"
      }
    ],
    "types": {
      "t_address": {
        "encoding": "inplace",
        "label": "address",
        "numberOfBytes": "20"
      },
      "t_array(t_string_storage)dyn_storage": {
        "base": "t_string_storage",
        "encoding": "dynamic_array",
        "label": "string[]",
        "numberOfBytes": "32"
      },
      "t_array(t_uint256)dyn_storage": {
        "base": "t_uint256",
        "encoding": "dynamic_array",
        "label": "uint256[]",
        "numberOfBytes": "32"
      },
      "t_bool": {
        "encoding": "inplace",
        "label": "bool",
        "numberOfBytes": "1"
      },
      "t_mapping(t_address,t_bool)": {
        "encoding": "mapping",
        "key": "t_address",
        "label": "mapping(address => bool)",
        "numberOfBytes": "32",
        "value": "t_bool"
      },
      "t_mapping(t_address,t_mapping(t_address,t_bool))": {
        "encoding": "mapping",
        "key": "t_address",
        "label": "mapping(address => mapping(address => bool))",
        "numberOfBytes": "32",
        "value": "t_mapping(t_address,t_bool)"
      },
      "t_mapping(t_address,t_uint256)": {
        "encoding": "mapping",
        "key": "t_address",
        "label": "mapping(address => uint256)",
        "numberOfBytes": "32",
        "value": "t_uint256"
      },
      "t_mapping(t_uint256,t_address)": {
        "encoding": "mapping",
        "key": "t_uint256",
        "label": "mapping(uint256 => address)",
        "numberOfBytes": "32",
        "value": "t_address"
      },
      "t_mapping(t_uint256,t_string_storage)": {
        "encoding": "mapping",
        "key": "t_uint256",
        "label": "mapping(uint256 => string)",
        "numberOfBytes": "32",
        "value": "t_string_storage"
      },
      "t_string_storage": {
        "encoding": "bytes",
        "label": "string",
        "numberOfBytes": "32"
      },
      "t_uint256": {
        "encoding": "inplace",
        "label": "uint256",
        "numberOfBytes": "32"
      }
    }
  }
}